{
    "contractName": "ICO",
    "abi": [
        {
            "inputs": [
                {
                    "internalType": "address",
                    "name": "_tokenusdtAddress",
                    "type": "address"
                },
                {
                    "internalType": "address",
                    "name": "_tokenknabAddress",
                    "type": "address"
                },
                {
                    "internalType": "address",
                    "name": "_beneficiary",
                    "type": "address"
                },
                {
                    "internalType": "uint256",
                    "name": "_ratio",
                    "type": "uint256"
                }
            ],
            "stateMutability": "nonpayable",
            "type": "constructor"
        },
        {
            "anonymous": false,
            "inputs": [
                {
                    "indexed": true,
                    "internalType": "address",
                    "name": "",
                    "type": "address"
                },
                {
                    "indexed": false,
                    "internalType": "uint256",
                    "name": "amount",
                    "type": "uint256"
                },
                {
                    "indexed": false,
                    "internalType": "uint256",
                    "name": "token",
                    "type": "uint256"
                }
            ],
            "name": "Buy",
            "type": "event"
        },
        {
            "anonymous": false,
            "inputs": [
                {
                    "indexed": false,
                    "internalType": "address",
                    "name": "beneficiary",
                    "type": "address"
                },
                {
                    "indexed": false,
                    "internalType": "uint256",
                    "name": "timestamp",
                    "type": "uint256"
                }
            ],
            "name": "ICOInitialized",
            "type": "event"
        },
        {
            "anonymous": false,
            "inputs": [
                {
                    "indexed": false,
                    "internalType": "uint256",
                    "name": "prevAmount",
                    "type": "uint256"
                },
                {
                    "indexed": false,
                    "internalType": "uint256",
                    "name": "newAmount",
                    "type": "uint256"
                }
            ],
            "name": "amountRaisedUpdated",
            "type": "event"
        },
        {
            "inputs": [],
            "name": "_amountRaised",
            "outputs": [
                {
                    "internalType": "uint256",
                    "name": "",
                    "type": "uint256"
                }
            ],
            "stateMutability": "view",
            "type": "function"
        },
        {
            "inputs": [],
            "name": "beneficiary",
            "outputs": [
                {
                    "internalType": "address",
                    "name": "",
                    "type": "address"
                }
            ],
            "stateMutability": "view",
            "type": "function"
        },
        {
            "inputs": [
                {
                    "internalType": "uint256",
                    "name": "_amount",
                    "type": "uint256"
                }
            ],
            "name": "buy",
            "outputs": [],
            "stateMutability": "nonpayable",
            "type": "function"
        },
        {
            "inputs": [],
            "name": "changeFraction",
            "outputs": [],
            "stateMutability": "nonpayable",
            "type": "function"
        },
        {
            "inputs": [
                {
                    "internalType": "uint256",
                    "name": "_ch",
                    "type": "uint256"
                }
            ],
            "name": "changeRatio1",
            "outputs": [],
            "stateMutability": "nonpayable",
            "type": "function"
        },
        {
            "inputs": [],
            "name": "crowdSaleEnd",
            "outputs": [],
            "stateMutability": "nonpayable",
            "type": "function"
        },
        {
            "inputs": [
                {
                    "internalType": "uint256",
                    "name": "_amountTransfer",
                    "type": "uint256"
                }
            ],
            "name": "fundTransfer",
            "outputs": [],
            "stateMutability": "nonpayable",
            "type": "function"
        },
        {
            "inputs": [],
            "name": "knabToken",
            "outputs": [
                {
                    "internalType": "address",
                    "name": "",
                    "type": "address"
                }
            ],
            "stateMutability": "view",
            "type": "function"
        },
        {
            "inputs": [],
            "name": "usdtToken",
            "outputs": [
                {
                    "internalType": "address",
                    "name": "",
                    "type": "address"
                }
            ],
            "stateMutability": "view",
            "type": "function"
        }
    ],
    "bytecode": "608060405234801561001057600080fd5b50604051610e59380380610e5983398101604081905261002f91610136565b60016000556001600160a01b0382166100995760405162461bcd60e51b815260206004820152602260248201527f62656e656669636961727920616464726573732063616e6e6f74206265207a65604482015261726f60f01b606482015260840160405180910390fd5b600180546001600160a01b038681166001600160a01b031992831617909255600280548684169083161790556003805492851692909116821790556005829055604080519182524260208301527f6fef4b3c3822e5a5ded2809fccffeaf8d2c0ebf23994221ccc6758ff0fe97e0a910160405180910390a150505050610180565b80516001600160a01b038116811461013157600080fd5b919050565b6000806000806080858703121561014b578384fd5b6101548561011a565b93506101626020860161011a565b92506101706040860161011a565b6060959095015193969295505050565b610cca8061018f6000396000f3fe608060405234801561001057600080fd5b50600436106100935760003560e01c8063a98ad46c11610066578063a98ad46c146100fc578063d96a094a1461010f578063eaf8294b14610122578063f2d10469146100d0578063f792453d1461013557600080fd5b806338af3eed146100985780635176eb1d146100c85780636f799cf9146100d25780638964bbec146100e9575b600080fd5b6003546100ab906001600160a01b031681565b6040516001600160a01b0390911681526020015b60405180910390f35b6100d0610148565b005b6100db60045481565b6040519081526020016100bf565b6002546100ab906001600160a01b031681565b6001546100ab906001600160a01b031681565b6100d061011d366004610b7c565b610356565b6100d0610130366004610b7c565b61056a565b6100d0610143366004610b7c565b610694565b6003546001600160a01b0316336001600160a01b0316146101a65760405162461bcd60e51b8152602060048201526013602482015272556e617574686f72697365642061636365737360681b60448201526064015b60405180910390fd5b6360d48fe042116101f15760405162461bcd60e51b8152602060048201526015602482015274084850dc9bddd914d85b19481b9bdd08115b991959605a1b604482015260640161019d565b6002546040516370a0823160e01b81523060048201526001600160a01b03909116906370a082319060240160206040518083038186803b15801561023457600080fd5b505afa158015610248573d6000803e3d6000fd5b505050506040513d601f19601f8201168201806040525081019061026c9190610b94565b6102c25760405162461bcd60e51b815260206004820152602160248201527f4e6f2054454e464920697320617661696c61626c6520746f20776974686472616044820152607760f81b606482015260840161019d565b610354336002546040516370a0823160e01b81523060048201526001600160a01b03909116906370a082319060240160206040518083038186803b15801561030957600080fd5b505afa15801561031d573d6000803e3d6000fd5b505050506040513d601f19601f820116820180604052508101906103419190610b94565b6002546001600160a01b031691906106b0565b565b600260005414156103a95760405162461bcd60e51b815260206004820152601f60248201527f5265656e7472616e637947756172643a207265656e7472616e742063616c6c00604482015260640161019d565b6002600055426360993c6011156103f85760405162461bcd60e51b81526020600482015260136024820152721250d3c81b9bdd081cdd185c9d1959081e595d606a1b604482015260640161019d565b426360d48fe010156104405760405162461bcd60e51b81526020600482015260116024820152701250d3c8185b1c9958591e48195b991959607a1b604482015260640161019d565b600081116104905760405162461bcd60e51b815260206004820152601e60248201527f5f616d6f756e74206d7573742062652067726561746572207468616e20300000604482015260640161019d565b60006104a36360993c6062093a80610718565b42116104dd576005546104d6906104d0846104ca60646104c483603c610780565b906107ff565b90610718565b90610780565b90506104ee565b6005546104eb908390610780565b90505b604080518381526020810183905233917f1cbc5ab135991bd2b6a4b034a04aa2aa086dac1371cb9b16b8b5e2ed6b036bed910160405180910390a2610541336001546001600160a01b0316903085610841565b610558336002546001600160a01b031690836106b0565b6105618261087f565b50506001600055565b6003546001600160a01b0316336001600160a01b0316146105c35760405162461bcd60e51b8152602060048201526013602482015272556e617574686f72697365642061636365737360681b604482015260640161019d565b3361061b5760405162461bcd60e51b815260206004820152602260248201527f62656e656669636961727920616464726573732063616e6e6f74206265206e756044820152611b1b60f21b606482015260840161019d565b6000811161067a5760405162461bcd60e51b815260206004820152602660248201527f7472616e7366657220616d6f756e74206d75737420626520677265617465722060448201526507468616e20360d41b606482015260840161019d565b610691336001546001600160a01b031690836106b0565b50565b6003546001600160a01b031633146106ab57600080fd5b600555565b6040516001600160a01b03831660248201526044810182905261071390849063a9059cbb60e01b906064015b60408051601f198184030181529190526020810180516001600160e01b03166001600160e01b0319909316929092179091526108d9565b505050565b6000806107258385610bfb565b9050838110156107775760405162461bcd60e51b815260206004820152601b60248201527f536166654d6174683a206164646974696f6e206f766572666c6f770000000000604482015260640161019d565b90505b92915050565b60008261078f5750600061077a565b600061079b8385610c33565b9050826107a88583610c13565b146107775760405162461bcd60e51b815260206004820152602160248201527f536166654d6174683a206d756c7469706c69636174696f6e206f766572666c6f6044820152607760f81b606482015260840161019d565b600061077783836040518060400160405280601a81526020017f536166654d6174683a206469766973696f6e206279207a65726f0000000000008152506109ab565b6040516001600160a01b03808516602483015283166044820152606481018290526108799085906323b872dd60e01b906084016106dc565b50505050565b6004547f183b0e323516744dde88cd16cc530cb9d94345a10eacaf67368e56716c03c0c7906108ae8184610718565b6040805192835260208301919091520160405180910390a16004546108d39082610718565b60045550565b600061092e826040518060400160405280602081526020017f5361666545524332303a206c6f772d6c6576656c2063616c6c206661696c6564815250856001600160a01b03166109e49092919063ffffffff16565b805190915015610713578080602001905181019061094c9190610b5c565b6107135760405162461bcd60e51b815260206004820152602a60248201527f5361666545524332303a204552433230206f7065726174696f6e20646964206e6044820152691bdd081cdd58d8d9595960b21b606482015260840161019d565b600081836109cc5760405162461bcd60e51b815260040161019d9190610bc8565b5060006109d98486610c13565b9150505b9392505050565b60606109f384846000856109fb565b949350505050565b606082471015610a5c5760405162461bcd60e51b815260206004820152602660248201527f416464726573733a20696e73756666696369656e742062616c616e636520666f6044820152651c8818d85b1b60d21b606482015260840161019d565b843b610aaa5760405162461bcd60e51b815260206004820152601d60248201527f416464726573733a2063616c6c20746f206e6f6e2d636f6e7472616374000000604482015260640161019d565b600080866001600160a01b03168587604051610ac69190610bac565b60006040518083038185875af1925050503d8060008114610b03576040519150601f19603f3d011682016040523d82523d6000602084013e610b08565b606091505b5091509150610b18828286610b23565b979650505050505050565b60608315610b325750816109dd565b825115610b425782518084602001fd5b8160405162461bcd60e51b815260040161019d9190610bc8565b600060208284031215610b6d578081fd5b81518015158114610777578182fd5b600060208284031215610b8d578081fd5b5035919050565b600060208284031215610ba5578081fd5b5051919050565b60008251610bbe818460208701610c52565b9190910192915050565b6020815260008251806020840152610be7816040850160208701610c52565b601f01601f19169190910160400192915050565b60008219821115610c0e57610c0e610c7e565b500190565b600082610c2e57634e487b7160e01b81526012600452602481fd5b500490565b6000816000190483118215151615610c4d57610c4d610c7e565b500290565b60005b83811015610c6d578181015183820152602001610c55565b838111156108795750506000910152565b634e487b7160e01b600052601160045260246000fdfea2646970667358221220f7ae1ba536561d20721eaa3a0a7da43b796f878db6e035894f29d833197e6e8a64736f6c63430008040033",
    "sourcePath": "/home/oem/git/Knab/contracts/crowdsale/Crowdsale-Contract.sol",
    "compiler": {
        "name": "solc",
        "version": "0.8.4+commit.c7e474f2"
    },
    "functionHashes": {
        "_amountRaised()": "6f799cf9",
        "beneficiary()": "38af3eed",
        "buy(uint256)": "d96a094a",
        "changeFraction()": "f2d10469",
        "changeRatio1(uint256)": "f792453d",
        "crowdSaleEnd()": "5176eb1d",
        "fundTransfer(uint256)": "eaf8294b",
        "knabToken()": "8964bbec",
        "usdtToken()": "a98ad46c"
    },
    "gasEstimates": {
        "creation": {
            "codeDepositCost": "654800",
            "executionCost": "infinite",
            "totalCost": "infinite"
        },
        "external": {
            "_amountRaised()": "1040",
            "beneficiary()": "1027",
            "buy(uint256)": "infinite",
            "changeFraction()": "186",
            "changeRatio1(uint256)": "21152",
            "crowdSaleEnd()": "infinite",
            "fundTransfer(uint256)": "infinite",
            "knabToken()": "1093",
            "usdtToken()": "1026"
        },
        "internal": {
            "update(uint256)": "infinite"
        }
    }
}