{
    "contractName": "StakingRewards",
    "abi": [
        {
            "inputs": [
                {
                    "internalType": "address",
                    "name": "_owner",
                    "type": "address"
                },
                {
                    "internalType": "address",
                    "name": "_rewardsDistribution",
                    "type": "address"
                },
                {
                    "internalType": "address",
                    "name": "_rewardsToken",
                    "type": "address"
                },
                {
                    "internalType": "address",
                    "name": "_stakingToken",
                    "type": "address"
                }
            ],
            "stateMutability": "nonpayable",
            "type": "constructor"
        },
        {
            "anonymous": false,
            "inputs": [
                {
                    "indexed": false,
                    "internalType": "address",
                    "name": "oldOwner",
                    "type": "address"
                },
                {
                    "indexed": false,
                    "internalType": "address",
                    "name": "newOwner",
                    "type": "address"
                }
            ],
            "name": "OwnerChanged",
            "type": "event"
        },
        {
            "anonymous": false,
            "inputs": [
                {
                    "indexed": false,
                    "internalType": "address",
                    "name": "newOwner",
                    "type": "address"
                }
            ],
            "name": "OwnerNominated",
            "type": "event"
        },
        {
            "anonymous": false,
            "inputs": [
                {
                    "indexed": false,
                    "internalType": "bool",
                    "name": "isPaused",
                    "type": "bool"
                }
            ],
            "name": "PauseChanged",
            "type": "event"
        },
        {
            "anonymous": false,
            "inputs": [
                {
                    "indexed": false,
                    "internalType": "address",
                    "name": "token",
                    "type": "address"
                },
                {
                    "indexed": false,
                    "internalType": "uint256",
                    "name": "amount",
                    "type": "uint256"
                }
            ],
            "name": "Recovered",
            "type": "event"
        },
        {
            "anonymous": false,
            "inputs": [
                {
                    "indexed": false,
                    "internalType": "uint256",
                    "name": "reward",
                    "type": "uint256"
                }
            ],
            "name": "RewardAdded",
            "type": "event"
        },
        {
            "anonymous": false,
            "inputs": [
                {
                    "indexed": true,
                    "internalType": "address",
                    "name": "user",
                    "type": "address"
                },
                {
                    "indexed": false,
                    "internalType": "uint256",
                    "name": "reward",
                    "type": "uint256"
                }
            ],
            "name": "RewardPaid",
            "type": "event"
        },
        {
            "anonymous": false,
            "inputs": [
                {
                    "indexed": false,
                    "internalType": "uint256",
                    "name": "newDuration",
                    "type": "uint256"
                }
            ],
            "name": "RewardsDurationUpdated",
            "type": "event"
        },
        {
            "anonymous": false,
            "inputs": [
                {
                    "indexed": true,
                    "internalType": "address",
                    "name": "user",
                    "type": "address"
                },
                {
                    "indexed": false,
                    "internalType": "uint256",
                    "name": "amount",
                    "type": "uint256"
                }
            ],
            "name": "Staked",
            "type": "event"
        },
        {
            "anonymous": false,
            "inputs": [
                {
                    "indexed": true,
                    "internalType": "address",
                    "name": "user",
                    "type": "address"
                },
                {
                    "indexed": false,
                    "internalType": "uint256",
                    "name": "amount",
                    "type": "uint256"
                }
            ],
            "name": "Withdrawn",
            "type": "event"
        },
        {
            "inputs": [],
            "name": "acceptOwnership",
            "outputs": [],
            "stateMutability": "nonpayable",
            "type": "function"
        },
        {
            "inputs": [
                {
                    "internalType": "address",
                    "name": "account",
                    "type": "address"
                }
            ],
            "name": "balanceOf",
            "outputs": [
                {
                    "internalType": "uint256",
                    "name": "",
                    "type": "uint256"
                }
            ],
            "stateMutability": "view",
            "type": "function"
        },
        {
            "inputs": [
                {
                    "internalType": "address",
                    "name": "account",
                    "type": "address"
                }
            ],
            "name": "earned",
            "outputs": [
                {
                    "internalType": "uint256",
                    "name": "",
                    "type": "uint256"
                }
            ],
            "stateMutability": "view",
            "type": "function"
        },
        {
            "inputs": [],
            "name": "exit",
            "outputs": [],
            "stateMutability": "nonpayable",
            "type": "function"
        },
        {
            "inputs": [],
            "name": "getReward",
            "outputs": [],
            "stateMutability": "nonpayable",
            "type": "function"
        },
        {
            "inputs": [],
            "name": "getRewardForDuration",
            "outputs": [
                {
                    "internalType": "uint256",
                    "name": "",
                    "type": "uint256"
                }
            ],
            "stateMutability": "view",
            "type": "function"
        },
        {
            "inputs": [],
            "name": "lastPauseTime",
            "outputs": [
                {
                    "internalType": "uint256",
                    "name": "",
                    "type": "uint256"
                }
            ],
            "stateMutability": "view",
            "type": "function"
        },
        {
            "inputs": [],
            "name": "lastTimeRewardApplicable",
            "outputs": [
                {
                    "internalType": "uint256",
                    "name": "",
                    "type": "uint256"
                }
            ],
            "stateMutability": "view",
            "type": "function"
        },
        {
            "inputs": [],
            "name": "lastUpdateTime",
            "outputs": [
                {
                    "internalType": "uint256",
                    "name": "",
                    "type": "uint256"
                }
            ],
            "stateMutability": "view",
            "type": "function"
        },
        {
            "inputs": [
                {
                    "internalType": "address",
                    "name": "_owner",
                    "type": "address"
                }
            ],
            "name": "nominateNewOwner",
            "outputs": [],
            "stateMutability": "nonpayable",
            "type": "function"
        },
        {
            "inputs": [],
            "name": "nominatedOwner",
            "outputs": [
                {
                    "internalType": "address",
                    "name": "",
                    "type": "address"
                }
            ],
            "stateMutability": "view",
            "type": "function"
        },
        {
            "inputs": [
                {
                    "internalType": "uint256",
                    "name": "reward",
                    "type": "uint256"
                }
            ],
            "name": "notifyRewardAmount",
            "outputs": [],
            "stateMutability": "nonpayable",
            "type": "function"
        },
        {
            "inputs": [],
            "name": "owner",
            "outputs": [
                {
                    "internalType": "address",
                    "name": "",
                    "type": "address"
                }
            ],
            "stateMutability": "view",
            "type": "function"
        },
        {
            "inputs": [],
            "name": "paused",
            "outputs": [
                {
                    "internalType": "bool",
                    "name": "",
                    "type": "bool"
                }
            ],
            "stateMutability": "view",
            "type": "function"
        },
        {
            "inputs": [],
            "name": "periodFinish",
            "outputs": [
                {
                    "internalType": "uint256",
                    "name": "",
                    "type": "uint256"
                }
            ],
            "stateMutability": "view",
            "type": "function"
        },
        {
            "inputs": [
                {
                    "internalType": "address",
                    "name": "tokenAddress",
                    "type": "address"
                },
                {
                    "internalType": "uint256",
                    "name": "tokenAmount",
                    "type": "uint256"
                }
            ],
            "name": "recoverERC20",
            "outputs": [],
            "stateMutability": "nonpayable",
            "type": "function"
        },
        {
            "inputs": [],
            "name": "rewardPerToken",
            "outputs": [
                {
                    "internalType": "uint256",
                    "name": "",
                    "type": "uint256"
                }
            ],
            "stateMutability": "view",
            "type": "function"
        },
        {
            "inputs": [],
            "name": "rewardPerTokenStored",
            "outputs": [
                {
                    "internalType": "uint256",
                    "name": "",
                    "type": "uint256"
                }
            ],
            "stateMutability": "view",
            "type": "function"
        },
        {
            "inputs": [],
            "name": "rewardRate",
            "outputs": [
                {
                    "internalType": "uint256",
                    "name": "",
                    "type": "uint256"
                }
            ],
            "stateMutability": "view",
            "type": "function"
        },
        {
            "inputs": [
                {
                    "internalType": "address",
                    "name": "",
                    "type": "address"
                }
            ],
            "name": "rewards",
            "outputs": [
                {
                    "internalType": "uint256",
                    "name": "",
                    "type": "uint256"
                }
            ],
            "stateMutability": "view",
            "type": "function"
        },
        {
            "inputs": [],
            "name": "rewardsDistribution",
            "outputs": [
                {
                    "internalType": "address",
                    "name": "",
                    "type": "address"
                }
            ],
            "stateMutability": "view",
            "type": "function"
        },
        {
            "inputs": [],
            "name": "rewardsDuration",
            "outputs": [
                {
                    "internalType": "uint256",
                    "name": "",
                    "type": "uint256"
                }
            ],
            "stateMutability": "view",
            "type": "function"
        },
        {
            "inputs": [],
            "name": "rewardsToken",
            "outputs": [
                {
                    "internalType": "contract IERC20",
                    "name": "",
                    "type": "address"
                }
            ],
            "stateMutability": "view",
            "type": "function"
        },
        {
            "inputs": [
                {
                    "internalType": "bool",
                    "name": "_paused",
                    "type": "bool"
                }
            ],
            "name": "setPaused",
            "outputs": [],
            "stateMutability": "nonpayable",
            "type": "function"
        },
        {
            "inputs": [
                {
                    "internalType": "address",
                    "name": "_rewardsDistribution",
                    "type": "address"
                }
            ],
            "name": "setRewardsDistribution",
            "outputs": [],
            "stateMutability": "nonpayable",
            "type": "function"
        },
        {
            "inputs": [
                {
                    "internalType": "uint256",
                    "name": "_rewardsDuration",
                    "type": "uint256"
                }
            ],
            "name": "setRewardsDuration",
            "outputs": [],
            "stateMutability": "nonpayable",
            "type": "function"
        },
        {
            "inputs": [
                {
                    "internalType": "uint256",
                    "name": "amount",
                    "type": "uint256"
                }
            ],
            "name": "stake",
            "outputs": [],
            "stateMutability": "nonpayable",
            "type": "function"
        },
        {
            "inputs": [],
            "name": "stakingToken",
            "outputs": [
                {
                    "internalType": "contract IERC20",
                    "name": "",
                    "type": "address"
                }
            ],
            "stateMutability": "view",
            "type": "function"
        },
        {
            "inputs": [],
            "name": "totalSupply",
            "outputs": [
                {
                    "internalType": "uint256",
                    "name": "",
                    "type": "uint256"
                }
            ],
            "stateMutability": "view",
            "type": "function"
        },
        {
            "inputs": [
                {
                    "internalType": "uint256",
                    "name": "timestamp",
                    "type": "uint256"
                }
            ],
            "name": "updatePeriodFinish",
            "outputs": [],
            "stateMutability": "nonpayable",
            "type": "function"
        },
        {
            "inputs": [
                {
                    "internalType": "address",
                    "name": "",
                    "type": "address"
                }
            ],
            "name": "userRewardPerTokenPaid",
            "outputs": [
                {
                    "internalType": "uint256",
                    "name": "",
                    "type": "uint256"
                }
            ],
            "stateMutability": "view",
            "type": "function"
        },
        {
            "inputs": [
                {
                    "internalType": "uint256",
                    "name": "amount",
                    "type": "uint256"
                }
            ],
            "name": "withdraw",
            "outputs": [],
            "stateMutability": "nonpayable",
            "type": "function"
        }
    ],
    "bytecode": "60806040526000600755600060085562093a806009553480156200002257600080fd5b50604051620017ef380380620017ef8339810160408190526200004591620001ba565b836001600160a01b038116620000a25760405162461bcd60e51b815260206004820152601960248201527f4f776e657220616464726573732063616e6e6f7420626520300000000000000060448201526064015b60405180910390fd5b600080546001600160a01b0319166001600160a01b03831690811782556040805192835260208301919091527fb532073b38c83145e3e5135377a08bf9aab55bc0fd7c1179cd4fb995d2a5159c910160405180910390a15060016003556000546001600160a01b03166200014d5760405162461bcd60e51b815260206004820152601160248201527013dddb995c881b5d5cdd081899481cd95d607a1b604482015260640162000099565b600580546001600160a01b0393841661010002610100600160a81b0319909116179055600680549183166001600160a01b0319928316179055600280549390921692169190911790555062000216565b80516001600160a01b0381168114620001b557600080fd5b919050565b60008060008060808587031215620001d0578384fd5b620001db856200019d565b9350620001eb602086016200019d565b9250620001fb604086016200019d565b91506200020b606086016200019d565b905092959194509250565b6115c980620002266000396000f3fe608060405234801561001057600080fd5b50600436106101ef5760003560e01c806372f702f31161010f578063a694fc3a116100a2578063d1af0c7d11610071578063d1af0c7d14610405578063df136d651461041d578063e9fad8ee14610426578063ebe2b12b1461042e57600080fd5b8063a694fc3a146103ce578063c8f33c91146103e1578063cc1a378f146103ea578063cd3daf9d146103fd57600080fd5b80638980f11f116100de5780638980f11f1461037f5780638b876347146103925780638da5cb5b146103b257806391b4ded9146103c557600080fd5b806372f702f31461035357806379ba5097146103665780637b0a47ee1461036e57806380faa57d1461037757600080fd5b8063386a95251161018757806353a47bb71161015657806353a47bb7146102e7578063556f6e6b146102fa5780635c975abb1461030d57806370a082311461032a57600080fd5b8063386a9525146102985780633c6b16ab146102a15780633d18b912146102b45780633fc6df6e146102bc57600080fd5b806318160ddd116101c357806318160ddd14610262578063197621431461026a5780631c1f78eb1461027d5780632e1a7d4d1461028557600080fd5b80628cc262146101f45780630700037d1461021a5780631627540c1461023a57806316c38b3c1461024f575b600080fd5b6102076102023660046113a4565b610437565b6040519081526020015b60405180910390f35b6102076102283660046113a4565b600d6020526000908152604090205481565b61024d6102483660046113a4565b6104b5565b005b61024d61025d3660046113e7565b610512565b600e54610207565b61024d6102783660046113a4565b610588565b6102076105b2565b61024d61029336600461141f565b6105d0565b61020760095481565b61024d6102af36600461141f565b610735565b61024d610997565b6002546102cf906001600160a01b031681565b6040516001600160a01b039091168152602001610211565b6001546102cf906001600160a01b031681565b61024d61030836600461141f565b610a98565b60055461031a9060ff1681565b6040519015158152602001610211565b6102076103383660046113a4565b6001600160a01b03166000908152600f602052604090205490565b6006546102cf906001600160a01b031681565b61024d610b02565b61020760085481565b610207610bec565b61024d61038d3660046113be565b610bfa565b6102076103a03660046113a4565b600c6020526000908152604090205481565b6000546102cf906001600160a01b031681565b61020760045481565b61024d6103dc36600461141f565b610cca565b610207600a5481565b61024d6103f836600461141f565b610e90565b610207610f6a565b6005546102cf9061010090046001600160a01b031681565b610207600b5481565b61024d610fb6565b61020760075481565b6001600160a01b0381166000908152600d6020908152604080832054600c9092528220546104af91906104a990670de0b6b3a7640000906104a3906104849061047e610f6a565b90610fd9565b6001600160a01b0388166000908152600f602052604090205490610fec565b90610ff8565b90611004565b92915050565b6104bd611010565b600180546001600160a01b0319166001600160a01b0383169081179091556040519081527f906a1c6bd7e3091ea86693dd029a831c19049ce77f1dce2ce0bab1cacbabce22906020015b60405180910390a150565b61051a611010565b60055460ff161515811515141561052e5750565b6005805460ff191682151590811790915560ff161561054c57426004555b60055460405160ff909116151581527f8fb6c181ee25a520cf3dd6565006ef91229fcfe5a989566c2a3b8c115570cec590602001610507565b50565b610590611010565b600280546001600160a01b0319166001600160a01b0392909216919091179055565b60006105cb600954600854610fec90919063ffffffff16565b905090565b600260035414156105fc5760405162461bcd60e51b81526004016105f39061149e565b60405180910390fd5b60026003553361060a610f6a565b600b55610615610bec565b600a556001600160a01b0381161561065c5761063081610437565b6001600160a01b0382166000908152600d6020908152604080832093909355600b54600c909152919020555b600082116106a05760405162461bcd60e51b8152602060048201526011602482015270043616e6e6f74207769746864726177203607c1b60448201526064016105f3565b600e546106ad9083610fd9565b600e55336000908152600f60205260409020546106ca9083610fd9565b336000818152600f60205260409020919091556006546106f6916001600160a01b039091169084611082565b60405182815233907f7084f5476618d8e60b11ef0d7d3f06914655adb8793e28ff7f018d4c76d505d5906020015b60405180910390a250506001600355565b6002546001600160a01b031633146107a25760405162461bcd60e51b815260206004820152602a60248201527f43616c6c6572206973206e6f742052657761726473446973747269627574696f6044820152691b8818dbdb9d1c9858dd60b21b60648201526084016105f3565b60006107ac610f6a565b600b556107b7610bec565b600a556001600160a01b038116156107fe576107d281610437565b6001600160a01b0382166000908152600d6020908152604080832093909355600b54600c909152919020555b600754421061081d57600954610815908390610ff8565b600855610860565b60075460009061082d9042610fd9565b9050600061084660085483610fec90919063ffffffff16565b60095490915061085a906104a38684611004565b60085550505b6005546040516370a0823160e01b815230600482015260009161010090046001600160a01b0316906370a082319060240160206040518083038186803b1580156108a957600080fd5b505afa1580156108bd573d6000803e3d6000fd5b505050506040513d601f19601f820116820180604052508101906108e19190611437565b90506108f860095482610ff890919063ffffffff16565b60085411156109495760405162461bcd60e51b815260206004820152601860248201527f50726f76696465642072657761726420746f6f2068696768000000000000000060448201526064016105f3565b42600a81905560095461095c9190611004565b6007556040518381527fde88a922e0d3b88b24e9623efeb464919c6bf9f66857a65e2bfcf2ce87a9433d9060200160405180910390a1505050565b600260035414156109ba5760405162461bcd60e51b81526004016105f39061149e565b6002600355336109c8610f6a565b600b556109d3610bec565b600a556001600160a01b03811615610a1a576109ee81610437565b6001600160a01b0382166000908152600d6020908152604080832093909355600b54600c909152919020555b336000908152600d60205260409020548015610a8f57336000818152600d6020526040812055600554610a5d916101009091046001600160a01b03169083611082565b60405181815233907fe2403640ba68fed3a2f88b7557551d1993f84b99bb10ff833f0cf8db0c5e048690602001610724565b50506001600355565b610aa0611010565b6000610aaa610f6a565b600b55610ab5610bec565b600a556001600160a01b03811615610afc57610ad081610437565b6001600160a01b0382166000908152600d6020908152604080832093909355600b54600c909152919020555b50600755565b6001546001600160a01b03163314610b7a5760405162461bcd60e51b815260206004820152603560248201527f596f75206d757374206265206e6f6d696e61746564206265666f726520796f7560448201527402063616e20616363657074206f776e65727368697605c1b60648201526084016105f3565b600054600154604080516001600160a01b0393841681529290911660208301527fb532073b38c83145e3e5135377a08bf9aab55bc0fd7c1179cd4fb995d2a5159c910160405180910390a160018054600080546001600160a01b03199081166001600160a01b03841617909155169055565b60006105cb426007546110ea565b610c02611010565b6006546001600160a01b0383811691161415610c6a5760405162461bcd60e51b815260206004820152602160248201527f43616e6e6f7420776974686472617720746865207374616b696e6720746f6b656044820152603760f91b60648201526084016105f3565b600054610c84906001600160a01b03848116911683611082565b604080516001600160a01b0384168152602081018390527f8c1256b8896378cd5044f80c202f9772b9d77dc85c8a6eb51967210b09bfaa28910160405180910390a15050565b60026003541415610ced5760405162461bcd60e51b81526004016105f39061149e565b600260035560055460ff1615610d6b5760405162461bcd60e51b815260206004820152603c60248201527f5468697320616374696f6e2063616e6e6f7420626520706572666f726d65642060448201527f7768696c652074686520636f6e7472616374206973207061757365640000000060648201526084016105f3565b33610d74610f6a565b600b55610d7f610bec565b600a556001600160a01b03811615610dc657610d9a81610437565b6001600160a01b0382166000908152600d6020908152604080832093909355600b54600c909152919020555b60008211610e075760405162461bcd60e51b815260206004820152600e60248201526d043616e6e6f74207374616b6520360941b60448201526064016105f3565b600e54610e149083611004565b600e55336000908152600f6020526040902054610e319083611004565b336000818152600f6020526040902091909155600654610e5e916001600160a01b03909116903085611100565b60405182815233907f9e71bc8eea02a63969f509818f2dafb9254532904319f9dbda79b67bd34a5f3d90602001610724565b610e98611010565b6007544211610f355760405162461bcd60e51b815260206004820152605860248201527f50726576696f7573207265776172647320706572696f64206d7573742062652060448201527f636f6d706c657465206265666f7265206368616e67696e67207468652064757260648201527f6174696f6e20666f7220746865206e657720706572696f640000000000000000608482015260a4016105f3565b60098190556040518181527ffb46ca5a5e06d4540d6387b930a7c978bce0db5f449ec6b3f5d07c6e1d44f2d390602001610507565b6000600e5460001415610f7e5750600b5490565b6105cb610fad600e546104a3670de0b6b3a7640000610fa7600854610fa7600a5461047e610bec565b90610fec565b600b5490611004565b336000908152600f6020526040902054610fcf906105d0565b610fd7610997565b565b6000610fe5828461152c565b9392505050565b6000610fe5828461150d565b6000610fe582846114ed565b6000610fe582846114d5565b6000546001600160a01b03163314610fd75760405162461bcd60e51b815260206004820152602f60248201527f4f6e6c792074686520636f6e7472616374206f776e6572206d6179207065726660448201526e37b936903a3434b99030b1ba34b7b760891b60648201526084016105f3565b6040516001600160a01b0383166024820152604481018290526110e590849063a9059cbb60e01b906064015b60408051601f198184030181529190526020810180516001600160e01b03166001600160e01b03199093169290921790915261113e565b505050565b60008183106110f95781610fe5565b5090919050565b6040516001600160a01b03808516602483015283166044820152606481018290526111389085906323b872dd60e01b906084016110ae565b50505050565b6000611193826040518060400160405280602081526020017f5361666545524332303a206c6f772d6c6576656c2063616c6c206661696c6564815250856001600160a01b03166112109092919063ffffffff16565b8051909150156110e557808060200190518101906111b19190611403565b6110e55760405162461bcd60e51b815260206004820152602a60248201527f5361666545524332303a204552433230206f7065726174696f6e20646964206e6044820152691bdd081cdd58d8d9595960b21b60648201526084016105f3565b606061121f8484600085611227565b949350505050565b6060824710156112885760405162461bcd60e51b815260206004820152602660248201527f416464726573733a20696e73756666696369656e742062616c616e636520666f6044820152651c8818d85b1b60d21b60648201526084016105f3565b843b6112d65760405162461bcd60e51b815260206004820152601d60248201527f416464726573733a2063616c6c20746f206e6f6e2d636f6e747261637400000060448201526064016105f3565b600080866001600160a01b031685876040516112f2919061144f565b60006040518083038185875af1925050503d806000811461132f576040519150601f19603f3d011682016040523d82523d6000602084013e611334565b606091505b509150915061134482828661134f565b979650505050505050565b6060831561135e575081610fe5565b82511561136e5782518084602001fd5b8160405162461bcd60e51b81526004016105f3919061146b565b80356001600160a01b038116811461139f57600080fd5b919050565b6000602082840312156113b5578081fd5b610fe582611388565b600080604083850312156113d0578081fd5b6113d983611388565b946020939093013593505050565b6000602082840312156113f8578081fd5b8135610fe581611585565b600060208284031215611414578081fd5b8151610fe581611585565b600060208284031215611430578081fd5b5035919050565b600060208284031215611448578081fd5b5051919050565b60008251611461818460208701611543565b9190910192915050565b602081526000825180602084015261148a816040850160208701611543565b601f01601f19169190910160400192915050565b6020808252601f908201527f5265656e7472616e637947756172643a207265656e7472616e742063616c6c00604082015260600190565b600082198211156114e8576114e861156f565b500190565b60008261150857634e487b7160e01b81526012600452602481fd5b500490565b60008160001904831182151516156115275761152761156f565b500290565b60008282101561153e5761153e61156f565b500390565b60005b8381101561155e578181015183820152602001611546565b838111156111385750506000910152565b634e487b7160e01b600052601160045260246000fd5b801515811461058557600080fdfea2646970667358221220d515bf49eae026cac73046e985e10cafb4cd070c7d8a0dd2faa25400855a95e664736f6c63430008040033",
    "sourcePath": "/home/oem/git/Knab/contracts/staking/StakingRewards.sol",
    "compiler": {
        "name": "solc",
        "version": "0.8.4+commit.c7e474f2"
    },
    "functionHashes": {
        "acceptOwnership()": "79ba5097",
        "balanceOf(address)": "70a08231",
        "earned(address)": "008cc262",
        "exit()": "e9fad8ee",
        "getReward()": "3d18b912",
        "getRewardForDuration()": "1c1f78eb",
        "lastPauseTime()": "91b4ded9",
        "lastTimeRewardApplicable()": "80faa57d",
        "lastUpdateTime()": "c8f33c91",
        "nominateNewOwner(address)": "1627540c",
        "nominatedOwner()": "53a47bb7",
        "notifyRewardAmount(uint256)": "3c6b16ab",
        "owner()": "8da5cb5b",
        "paused()": "5c975abb",
        "periodFinish()": "ebe2b12b",
        "recoverERC20(address,uint256)": "8980f11f",
        "rewardPerToken()": "cd3daf9d",
        "rewardPerTokenStored()": "df136d65",
        "rewardRate()": "7b0a47ee",
        "rewards(address)": "0700037d",
        "rewardsDistribution()": "3fc6df6e",
        "rewardsDuration()": "386a9525",
        "rewardsToken()": "d1af0c7d",
        "setPaused(bool)": "16c38b3c",
        "setRewardsDistribution(address)": "19762143",
        "setRewardsDuration(uint256)": "cc1a378f",
        "stake(uint256)": "a694fc3a",
        "stakingToken()": "72f702f3",
        "totalSupply()": "18160ddd",
        "updatePeriodFinish(uint256)": "556f6e6b",
        "userRewardPerTokenPaid(address)": "8b876347",
        "withdraw(uint256)": "2e1a7d4d"
    },
    "gasEstimates": {
        "creation": {
            "codeDepositCost": "1115400",
            "executionCost": "infinite",
            "totalCost": "infinite"
        },
        "external": {
            "acceptOwnership()": "45694",
            "balanceOf(address)": "1337",
            "earned(address)": "infinite",
            "exit()": "infinite",
            "getReward()": "infinite",
            "getRewardForDuration()": "infinite",
            "lastPauseTime()": "1095",
            "lastTimeRewardApplicable()": "1194",
            "lastUpdateTime()": "1051",
            "nominateNewOwner(address)": "23180",
            "nominatedOwner()": "1082",
            "notifyRewardAmount(uint256)": "infinite",
            "owner()": "1126",
            "paused()": "1099",
            "periodFinish()": "1094",
            "recoverERC20(address,uint256)": "infinite",
            "rewardPerToken()": "infinite",
            "rewardPerTokenStored()": "1050",
            "rewardRate()": "1074",
            "rewards(address)": "1277",
            "rewardsDistribution()": "1149",
            "rewardsDuration()": "1030",
            "rewardsToken()": "1092",
            "setPaused(bool)": "44861",
            "setRewardsDistribution(address)": "22103",
            "setRewardsDuration(uint256)": "23076",
            "stake(uint256)": "infinite",
            "stakingToken()": "1083",
            "totalSupply()": "1027",
            "updatePeriodFinish(uint256)": "63780",
            "userRewardPerTokenPaid(address)": "1275",
            "withdraw(uint256)": "infinite"
        }
    }
}